:100000000C9437000C945F000C945F000C945F001C
:100010000C945F000C945F000C945F000C945F00E4
:100020000C945F000C945F000C945F000C945F00D4
:100030000C945F000C945F000C945F000C945F00C4
:100040000C949A020C945F000C94BF030C940D0462
:100050000C945F000C945F000C945F000C945F00A4
:100060000C945F000C945F009800790591001124B6
:100070001FBECFEFD8E0DEBFCDBF11E0A0E0B1E002
:10008000ECEDF5E102C005900D92A238B107D9F769
:1000900012E0A2E8B1E001C01D92A235B107E1F77C
:1000A00010E0CCE6D0E004C02297FE010E94DD0AF9
:1000B000C836D107C9F70E94CF050C94E10A0C9409
:1000C0000000FB01DC0102C001900D924150504044
:1000D000D8F70895FB01DC018D9101908019011082
:1000E000D9F3990B0895FB01DC0101900D920020DA
:1000F000E1F708958130910551F46F5F7F4F81F4EE
:1001000080E991E060E071E00E94ED070895892B9D
:1001100039F46F5F7F4F21F480E991E00E947E08FF
:10012000089580E090E06FEF7FEF0E947A000895DD
:1001300081E090E06FEF7FEF0E947A0008950F93C7
:100140001F93DF93CF93CDB7DEB727970FB6F89401
:10015000DEBF0FBECDBF8CE292E00E94CF04181626
:100160001906ECF480E991E060E071E00E94070874
:100170000FC08CE292E00E940005682F80E991E0B8
:100180000E94A7076AE070E080E090E00E94080308
:100190008CE292E00E94CF041816190654F38E01E7
:1001A0000F5F1F4FC80160E971E040E050E022E0BE
:1001B00030E00E94200880E991E0B8010E946708C1
:1001C000C8010E947E0880E991E061E071E00E9430
:1001D00021078823C1F00E94E20270939801609386
:1001E00097018EE00E949C0390938F0180938E0173
:1001F0000E94E20270939A01609399018CE292E06E
:1002000064E071E09FC080E991E06CE071E00E94E1
:1002100021078823C1F00E94E20270939801609345
:1002200097018FE00E949C0390938F0180938E0131
:100230000E94E20270939A01609399018CE292E02D
:100240006FE071E07FC080E991E064E171E00E94BD
:1002500021078823C1F00E94E20270939801609305
:10026000970180E10E949C0390938F0180938E01FF
:100270000E94E20270939A01609399018CE292E0ED
:1002800067E171E05FC080E991E06CE171E00E949C
:1002900021078823C1F00E94E202709398016093C5
:1002A000970181E10E949C0390938F0180938E01BE
:1002B0000E94E20270939A01609399018CE292E0AD
:1002C0006FE171E03FC080E991E064E271E00E947B
:1002D00021078823C1F00E94E20270939801609385
:1002E000970182E10E949C0390938F0180938E017D
:1002F0000E94E20270939A01609399018CE292E06D
:1003000067E271E01FC080E991E06CE271E00E9459
:1003100021078823F1F00E94E20270939801609314
:10032000970183E10E949C0390938F0180938E013B
:100330000E94E20270939A01609399018CE292E02C
:100340006FE271E00E941E0760918E0170918F0133
:1003500099C080E991E064E371E00E94210788235D
:1003600009F4BDC00E94E202709398016093970166
:100370008EE00E949C0390938301809382018FE022
:100380000E949C03909385018093840180E10E94E8
:100390009C03909387018093860181E10E949C03D6
:1003A000909389018093880182E10E949C0390933D
:1003B0008B0180938A0183E10E949C0390938D01BD
:1003C00080938C010E94E20270939A0160939901DC
:1003D0008CE292E067E371E00E941E076091820167
:1003E000709183018CE292E04AE050E00E940B079A
:1003F0008CE292E065E671E00E941E076091840144
:10040000709185018CE292E04AE050E00E940B0777
:100410008CE292E065E671E00E941E076091860121
:10042000709187018CE292E04AE050E00E940B0755
:100430008CE292E065E671E00E941E0760918801FF
:10044000709189018CE292E04AE050E00E940B0733
:100450008CE292E065E671E00E941E0760918A01DD
:1004600070918B018CE292E04AE050E00E940B0711
:100470008CE292E065E671E00E941E0760918C01BB
:1004800070918D018CE292E04AE050E00E940B07EF
:100490008CE292E069E071E00E941E076091990190
:1004A00070919A018091970190919801681B790B46
:1004B0008CE292E04AE050E00E940B078CE292E06E
:1004C00069E071E00E941E070E94E202AB01BC01DC
:1004D0008CE292E02AE030E00E94B7060CC080E98E
:1004E00091E067E671E00E94210780E991E060E019
:1004F00071E00E94070827960FB6F894DEBF0FBE82
:10050000CDBFCF91DF911F910F910895EAE7F0E001
:1005100080818460808380818D7F808380818E7FD5
:1005200080838CE292E040E855E260E070E00E9457
:10053000480408951F920F920FB60F9211242F9323
:100540003F938F939F93AF93BF9380919F0190911F
:10055000A001A091A101B091A2013091A301019647
:10056000A11DB11D232F2D5F2D3720F02D57019692
:10057000A11DB11D2093A30180939F019093A00121
:10058000A093A101B093A20180919B0190919C0145
:10059000A0919D01B0919E010196A11DB11D809376
:1005A0009B0190939C01A0939D01B0939E01BF91EC
:1005B000AF919F918F913F912F910F900FBE0F9010
:1005C0001F9018959FB7F89420919B0130919C0142
:1005D00040919D0150919E0186B5A89B06C08F3F1A
:1005E00021F02F5F3F4F4F4F5F4F9FBF542F432F3F
:1005F000322F2227280F311D411D511D82E0220F6D
:10060000331F441F551F8A95D1F7B901CA010895B8
:100610009B01AC017FB7F89480919B0190919C0164
:10062000A0919D01B0919E0166B5A89B05C06F3F4A
:1006300019F00196A11DB11D7FBFBA2FA92F982FC8
:100640008827860F911DA11DB11D62E0880F991F9B
:10065000AA1FBB1F6A95D1F7BC012DC0FFB7F89444
:1006600080919B0190919C01A0919D01B0919E0170
:10067000E6B5A89B05C0EF3F19F00196A11DB11D7D
:10068000FFBFBA2FA92F982F88278E0F911DA11D6C
:10069000B11DE2E0880F991FAA1FBB1FEA95D1F791
:1006A000861B970B885E9340C8F221503040404033
:1006B000504068517C4F211531054105510571F6B7
:1006C0000895789484B5826084BD84B5816084BDCA
:1006D00085B5826085BD85B5816085BDEEE6F0E0BB
:1006E000808181608083E1E8F0E010828081826017
:1006F0008083808181608083E0E8F0E08081816098
:100700008083E1EBF0E0808184608083E0EBF0E0C7
:10071000808181608083EAE7F0E08081846080836B
:100720008081826080838081816080838081806815
:1007300080831092C1000895982F8E3008F09E504B
:10074000977080916A018295880F880F807C892B31
:1007500080937C0080917A00806480937A008091FD
:100760007A0086FDFCCF2091780040917900942F8B
:1007700080E030E0282B392BC901089508951F929D
:100780000F920FB60F9211242F933F934F938F9395
:100790009F93EF93FF938091C00082FD1DC0409115
:1007A000C6002091E4013091E5012F5F3F4F2F7388
:1007B00030708091E6019091E7012817390771F0B8
:1007C000E091E401F091E501EC55FE4F4083309358
:1007D000E5012093E40102C08091C600FF91EF91F2
:1007E0009F918F914F913F912F910F900FBE0F903E
:1007F0001F901895E0913802F0913902E05CFF4FAC
:100800008191919120813181821B930B8F73907024
:10081000892B11F00E94BE0308951F920F920FB60C
:100820000F9211242F933F938F939F93EF93FF93F6
:10083000209128023091290280912A0290912B0266
:100840002817390731F48091C1008F7D8093C10052
:1008500014C0E0912A02F0912B02E851FE4F208152
:1008600080912A0290912B0201968F739070909341
:100870002B0280932A022093C600FF91EF919F9153
:100880008F913F912F910F900FBE0F901F90189551
:10089000AF92BF92DF92EF92FF920F931F93CF938D
:1008A000DF93EC017A018B01DD24403081EE5807A3
:1008B00080E0680780E0780711F0DD24D39491E0B0
:1008C000A92EB12CEC89FD89DD2069F0C50108A0B5
:1008D00002C0880F991F0A94E2F7808360E079E0F4
:1008E0008DE390E005C0108260E874E88EE190E04E
:1008F000A80197010E94B90A215030404040504061
:10090000569547953795279580E12030380720F098
:10091000DD2011F0DD24D6CFE889F9893083EA891A
:10092000FB89208319A2EE89FF89408121E030E014
:10093000C9010C8C02C0880F991F0A94E2F7482B5A
:100940004083EE89FF894081C9010D8C02C0880F68
:10095000991F0A94E2F7482B4083EE89FF89408172
:10096000C9010E8C02C0880F991F0A94E2F7482B28
:100970004083EE89FF8980810F8C02C0220F331FD4
:100980000A94E2F7209528232083DF91CF911F91CD
:100990000F91FF90EF90DF90BF90AF900895DC0132
:1009A0001C96ED91FC911D97E05CFF4F21913191D8
:1009B00080819181281B390B2F733070C9010895F4
:1009C000DC011C96ED91FC911D97E05CFF4F2081AE
:1009D0003181E054F040DF01AE5BBF4F8D919C91BF
:1009E00011972817390719F42FEF3FEF07C08D91A2
:1009F0009C91E80FF91F8081282F30E0C9010895EC
:100A0000DC011C96ED91FC911D97E05CFF4F20816D
:100A10003181E054F040DF01AE5BBF4F8D919C917E
:100A200011972817390719F42FEF3FEF10C08D9158
:100A30009C911197E80FF91F20818D919C9111973E
:100A400001968F73907011969C938E9330E0C9013C
:100A50000895DC0191968C919197882339F05496F2
:100A6000ED91FC915597808186FFF9CF91961C926C
:100A70000895CF93DF93EC01EE85FF85E05CFF4F97
:100A800020813181E054F0402F5F3F4F2F73307051
:100A9000DF01AE5BBF4F8D919C91119728173907ED
:100AA000D1F3E05CFF4F80819181E054F040E80F8A
:100AB000F91F6083EE85FF85E05CFF4F3183208363
:100AC000EE89FF89208181E090E00F8C02C0880FC1
:100AD000991F0A94E2F7282B208381E089A3EC89EF
:100AE000FD8980818064808381E090E0DF91CF91F7
:100AF000089510922F0210922E0288EE93E0A0E04B
:100B0000B0E08093300290933102A0933202B09310
:100B1000330285E791E090932D0280932C0284EAC2
:100B200091E0909339028093380288EE91E090939F
:100B30003B0280933A0285EC90E090933D028093D3
:100B40003C0284EC90E090933F0280933E0280EC64
:100B500090E0909341028093400281EC90E090936A
:100B600043028093420282EC90E09093450280938E
:100B7000440286EC90E0909347028093460284E022
:100B80008093480283E08093490287E080934A0281
:100B900085E080934B0281E080934C020895CF93CF
:100BA000DF930E9461030E948602CAEFD3E00E9495
:100BB0009F002097E1F30E94FA03F9CFCF92DF92D2
:100BC000EF92FF920F931F93CF93DF937C016B0102
:100BD0008A01C0E0D0E00FC0D6016D916D01D70150
:100BE000ED91FC910190F081E02DC7010995C80FAE
:100BF000D91F015010400115110571F7CE01DF9189
:100C0000CF911F910F91FF90EF90DF90CF900895BB
:100C1000EF92FF920F931F938C01DC01ED91FC91F9
:100C20000190F081E02D6DE009957C01D801ED91F6
:100C3000FC910190F081E02DC8016AE009959C01CA
:100C40002E0D3F1DC9011F910F91FF90EF90089548
:100C5000CF93DF93EC016115710519F420E030E0CA
:100C60000FC0DB010D900020E9F71197A61BB70B11
:100C7000E881F9810280F381E02DAD0109959C01A5
:100C8000C901DF91CF9108954F925F927F928F9229
:100C90009F92AF92BF92CF92DF92EF92FF920F930B
:100CA0001F93DF93CF93CDB7DEB7A1970FB6F8941C
:100CB000DEBF0FBECDBF2C01742ECB01223008F455
:100CC0002AE019A231E2C32ED12CCC0EDD1E822ED9
:100CD0009924AA24BB24672D752FA50194010E9495
:100CE000B90A79018A01C801B701A50194010E94DE
:100CF0009A0A472D461B0894C108D1084A3014F4BB
:100D0000405D01C0495CF6014083E114F104010536
:100D1000110521F07E2C5F2DC801DDCFC201B60187
:100D20000E942806A1960FB6F894DEBF0FBECDBF75
:100D3000CF91DF911F910F91FF90EF90DF90CF90B7
:100D4000BF90AF909F908F907F905F904F9008954D
:100D5000DC012115310541F4ED91FC910190F08108
:100D6000E02D642F099508950E9444060895EF929E
:100D7000FF920F931F937C010E94A8068C01C7016C
:100D80000E9408069C01200F311FC9011F910F917D
:100D9000FF90EF900895CF92DF92EF92FF920F9322
:100DA0001F93CF93DF93EC016A017B01211531057D
:100DB00041F4E881F9810190F081E02D642F0995DB
:100DC0001FC02A303105D1F477FF17C0E881F981BF
:100DD0000190F081E02D6DE209958C0144275527A3
:100DE000BA014C195D096E097F09CE012AE00E9403
:100DF00044069801280F391F04C02AE00E944406C7
:100E00009C01C901DF91CF911F910F91FF90EF904D
:100E1000DF90CF900895EF92FF920F931F937B0185
:100E20009A010027F7FC0095102FB801A7010E9436
:100E3000CB061F910F91FF90EF9008950E94280616
:100E40000895DC01FB0114968D919C911597892BD7
:100E500031F461157105A9F090E0808108C00D9012
:100E6000BC91A02D6115710529F490E08C91882327
:100E700049F407C0CD010E946A009C0190E0232B39
:100E800009F491E0892F08950F931F93CF93DF9377
:100E9000EC018B016F5F7F4F888199810E94B909B6
:100EA000009711F480E005C0998388831B830A832F
:100EB00081E0DF91CF911F910F910895CF93DF9340
:100EC000EC0188819981892B29F08A819B81861781
:100ED000970760F4CE010E944407882341F08C817B
:100EE0009D81892B19F4E881F981108281E0DF91DD
:100EF000CF910895EF92FF920F931F93CF93DF93BB
:100F0000EC017B016C817D81E114F104C1F041159C
:100F1000510599F08A01060F171FB8010E945E075C
:100F2000882369F0888199812C813D81820F931FEC
:100F3000B7010E9473001D830C8381E001C080E033
:100F4000DF91CF911F910F91FF90EF900895DF9364
:100F5000CF9300D0CDB7DEB769831A82BE016F5F31
:100F60007F4F41E050E00E947A070F900F90CF91A1
:100F7000DF910895CF93DF93EC01888199810097E9
:100F800011F00E942109198218821D821C821B8285
:100F90001A82DF91CF910895EF92FF920F931F93E2
:100FA000CF93DF93EC017B018A01BA010E945E07B7
:100FB000882321F4CE010E94BA0707C01D830C8349
:100FC00088819981B7010E947300CE01DF91CF9192
:100FD0001F910F91FF90EF900895CF93DF93EC0155
:100FE000198218821B821A821D821C821E82611540
:100FF000710551F0DB010D900020E9F71197A61B58
:10100000B70BAD010E94CC07DF91CF9108950F93EC
:101010001F93182F092F6115710559F0DB010D90F1
:101020000020E9F71197A61BB70BAD010E94CC0772
:1010300002C00E94BA07812F902F1F910F9108952F
:10104000BF92CF92DF92EF92FF920F931F93CF93B5
:10105000DF93082FB92E6B017A01E90124173507B8
:1010600010F4EA017901802F9B2D69E671E00E945E
:10107000ED07D60114968D919C9115978E159F05BD
:10108000D0F08C179D0708F4EC01D601ED91FC918E
:101090001197EC0FFD1F108110826D917C916E0DE8
:1010A0007F1D802F9B2D0E940708D601ED91FC919A
:1010B000EC0FFD1F1083802F9B2DDF91CF911F918F
:1010C0000F91FF90EF90DF90CF90BF900895CF9356
:1010D000DF93EC01FB018617970761F06081718156
:1010E0006115710529F0448155810E94CC0702C029
:1010F0000E94BA07CE01DF91CF910895FC01808153
:1011000091810E94210908950F931F93CF93DF933C
:10111000BC018230910510F462E070E0E091500271
:10112000F091510240E050E0A0E0B0E024C08081A6
:10113000918186179707D0F08617970771F48281FF
:101140009381109729F013969C938E9312972CC03D
:10115000909351028093500227C04115510519F018
:101160008417950718F48D01AC01EF01DF0182812E
:1011700093819C01F9013097D1F641155105F9F0A1
:10118000CA01861B970B8430910580F48A819B816C
:101190000115110521F0F8019383828304C0909317
:1011A000510280935002FE01329645C0FE01E80FC5
:1011B000F91F619371930297998388833CC0809152
:1011C0004E0290914F02892B41F480916D019091D4
:1011D0006E0190934F0280934E0240916F015091A7
:1011E00070014115510541F44DB75EB780916B0117
:1011F00090916C01481B590B20914E0230914F0287
:1012000024173507B0F4CA01821B930B8617970782
:1012100080F0AB014E5F5F4F8417950750F0420F8F
:10122000531F50934F0240934E02F9016193719303
:1012300002C0E0E0F0E0CF01DF91CF911F910F916C
:101240000895CF93DF939C01009709F48FC0EC01C0
:1012500022971B821A82609150027091510261158F
:10126000710581F488819981820F931F20914E022C
:1012700030914F022817390739F5D0934F02C093A8
:101280004E0274C0DB0140E050E0AC17BD0708F12E
:10129000BB83AA83FE0121913191E20FF31FAE17A8
:1012A000BF0779F48D919C911197280F391F2E5FFC
:1012B0003F4F3983288312968D919C9113979B837E
:1012C0008A834115510571F4D0935102C0935002A5
:1012D0004DC012968D919C911397AD01009711F01E
:1012E000DC01D3CFDA011396DC93CE931297FA0187
:1012F00021913191E20FF31FCE17DF0769F4888146
:101300009981280F391F2E5F3F4FFA0131832083C7
:101310008A819B8193838283E0E0F0E0DB01129677
:101320008D919C911397009719F0BC01FD01F6CFA8
:10133000AB014E5F5F4FDB018D919C91840F951F38
:1013400020914E0230914F022817390779F43097D7
:1013500029F4109251021092500202C0138212829C
:101360004250504050934F0240934E02DF91CF9134
:1013700008956F927F928F929F92AF92BF92CF9279
:10138000DF92EF92FF920F931F93CF93DF938C0125
:10139000009729F4CB010E9484088C01BBC08EEF1A
:1013A000E82E8FEFF82EE00EF11E4801860E971EF4
:1013B0008E149F0408F4ACC0D7014D915C91119735
:1013C00046175707B8F04530510508F4A3C0CA01C5
:1013D00004978617970708F49DC042505040461B5B
:1013E000570BF401419351936D937C93CF010E946D
:1013F000210990C05B01A41AB50A3801640E751E5C
:10140000A0915002B0915102E0E0F0E0CC24DD2444
:1014100047C0A615B705A9F5CD91DC911197CE016E
:1014200002968A159B0568F1CE018A199B090296DE
:1014300012962C91129713963C91059758F0F4014F
:1014400022833383CA19DB09D183C083D7016D930B
:101450007C9309C04E5F5F4F4C0F5D1FF7015183B6
:101460004083C901FC01C114D10431F0D6011396A7
:10147000FC93EE9312974EC0F0935102E09350020A
:1014800049C08D919C911197E817F90708F4FC0168
:101490006D0112968C91129713969C919C01D90123
:1014A000109709F0B6CF80914E0290914F028615A9
:1014B0009705E9F4E617F707D0F420916F01309112
:1014C00070012115310541F42DB73EB780916B01B4
:1014D00090916C01281B390B82169306C8F49092E8
:1014E0004F0280924E02F7017183608313C0CB01DB
:1014F0000E948408EC01009759F0D7014D915C914E
:10150000B8010E946100C8010E9421098E0102C039
:1015100000E010E0C801DF91CF911F910F91FF9083
:10152000EF90DF90CF90BF90AF909F908F907F9083
:101530006F900895629FD001739FF001829FE00D2C
:10154000F11D649FE00DF11D929FF00D839FF00D42
:10155000749FF00D659FF00D9927729FB00DE11DEE
:10156000F91F639FB00DE11DF91FBD01CF011124CB
:101570000895A1E21A2EAA1BBB1BFD010DC0AA1FD4
:10158000BB1FEE1FFF1FA217B307E407F50720F0EC
:10159000A21BB30BE40BF50B661F771F881F991F67
:1015A0001A9469F760957095809590959B01AC01B0
:1015B000BD01CF010895EE0FFF1F0590F491E02DBE
:1015C000099410E0CCE6D0E004C0FE010E94DD0AE0
:0C15D0002296CE36D107C9F7F894FFCF61
:1015DC000041300041303A20002C200041310041C4
:1015EC00313A200041320041323A2000413300416F
:1015FC00333A200041340041343A20004135004157
:10160C00353A20004141004130202D2041352C201D
:10161C004D6561737572656D656E742054696D6589
:10162C002C2054696D652073696E63652053746159
:10163C0072743A20002C005300000180005202000A
:10164C0000000000003905DE05CF040005E0042988
:02165C00050087
:00000001FF
