:100000000C9464000C948C000C948C000C948C0068
:100010000C948C000C948C000C948C000C948C0030
:100020000C948C000C948C000C948C000C948C0020
:100030000C948C000C948C000C948C000C948C0010
:100040000C944F030C948C000C94C9040C94170569
:100050000C948C000C948C000C948C000C948C00F0
:100060000C948C000C948C000000000024002700ED
:100070002A0000000000250028002B0000000000DE
:1000800023002600290004040404040404040202DA
:100090000202020203030303030301020408102007
:1000A0004080010204081020010204081020000012
:1000B0000007000201000003040600000000000029
:1000C0000000F8008306F10011241FBECFEFD8E036
:1000D000DEBFCDBF11E0A0E0B1E0EEE7F8E102C085
:1000E00005900D92A238B107D9F712E0A2E8B1E06D
:1000F00001C01D92A534B107E1F710E0C6ECD0E0D5
:1001000004C02297FE010E94260CC23CD107C9F709
:100110000E94D9060C94320C0C9400001F93FC0131
:1001200099278827BC01E89411911032E9F319301E
:1001300010F01E30C8F31B3251F01D3249F46894A0
:1001400006C00E94C500610F711D811D911D119196
:1001500010531A30B0F33EF49095809570956195E8
:100160007F4F8F4F9F4F1F910895FB01DC0102C00D
:1001700001900D9241505040D8F70895FB01DC01E9
:1001800001900D920020E1F70895592F482F372F45
:10019000262F660F771F881F991F660F771F881FEE
:1001A000991F620F731F841F951F660F771F881F8B
:1001B000991F08958130910551F46F5F7F4F81F44D
:1001C00082E891E060E071E00E9441090895892B86
:1001D00039F46F5F7F4F21F482E891E00E94C709F4
:1001E000089580E090E06FEF7FEF0E94DA000895BD
:1001F00081E090E06FEF7FEF0E94DA00089588239E
:1002000019F08DE060E002C08DE061E00E947404AE
:1002100061E070E080E090E00E94970308958430F0
:10022000910501F18530910534F48130910561F03B
:10023000029749F50CC080319105F1F080329105AB
:1002400011F1089701F511C085E060E002C085E07A
:1002500061E00E94740486E060E00E94740487E01C
:1002600060E01BC085E060E002C085E061E00E94C4
:10027000740486E061E0F1CF85E060E00E947404E0
:1002800086E060E006C085E061E00E94740486E0DC
:1002900061E00E94740487E061E00E9474040895A4
:1002A0000F931F9385E061E00E94350486E061E0D2
:1002B0000E94350487E061E00E94350489E061E036
:1002C0000E94350488E061E00E9435048DE062E020
:1002D0000E9435040EE112E04091670150916801DF
:1002E0006091690170916A01C8010E945205C801BC
:1002F00061E071E00E944B0880916301909164017C
:100300000E940F011F910F910895CF92DF92EF92FB
:10031000FF921F936B017C01142F0894C11CD11C08
:10032000E11CF11C81E00E94FF00112319F088E01C
:1003300061E002C088E060E00E94740461E070E067
:1003400080E090E00E94970389E061E00E947404DD
:1003500080E991E00E94F00389E060E00E9474046B
:1003600088EC90E00E94F0030894C108D108E108ED
:10037000F108C114D104E104F10431F780E00E94D6
:10038000FF0081E01F91FF90EF90DF90CF900895E4
:100390004091630150916401609165017091660123
:1003A0008EE192E02AE030E00E94C1078091630173
:1003B000909164010E940F0160916301709164014A
:1003C000809165019091660120E43FE140E050E0BA
:1003D0000E94E30B41E00E948501609163017091EE
:1003E0006401809165019091660120E43FE140E065
:1003F00050E00E94E30B40E00E9485010895CF92F7
:10040000DF92EF92FF920F931F936B017C010EE13D
:1004100012E0C8016DE271E00E944808C801B7010E
:10042000A6012AE030E00E94C107C701B60140E002
:100430000E9485011F910F91FF90EF90DF90CF9068
:100440000895CF92DF92EF92FF920F931F936B016B
:100450007C010EE112E0C8016DE271E00E944808E3
:10046000C801B701A6012AE030E00E94C107C70118
:10047000B60141E00E9485011F910F91FF90EF901E
:10048000DF90CF900895EF92FF920F931F93DF9329
:10049000CF93CDB7DEB727970FB6F894DEBF0FBE68
:1004A000CDBF8EE192E00E94D90518161906ECF432
:1004B00082E891E060E071E00E945B090FC08EE18C
:1004C00092E00E940A06682F82E891E00E94FB08F1
:1004D0006AE070E080E090E00E9497038EE192E095
:1004E0000E94D9051816190654F382E891E00E947B
:1004F00084088E010F5F1F4FC80162E871E041E080
:1005000050E00E94BB09C8010E94730860938901F2
:1005100070938A0180938B0190938C01C8010E9493
:10052000C70982E891E060E070E00E945E08FC018B
:10053000E081E63469F0E73424F4E23409F09CC049
:1005400030C0ED3409F482C0E43509F095C052C0E2
:100550008EE192E06EE371E00E94480840918901CB
:1005600050918A0160918B0170918C018EE192E033
:100570002AE030E00E9415086091890170918A019B
:1005800080918B0190918C012091630130916401E5
:1005900040916501509166010E94E30B0E94FF01AA
:1005A00065C08EE192E06AE471E00E9448084091E3
:1005B000890150918A0160918B0170918C018EE1CB
:1005C00092E02AE030E00E94150860918901709164
:1005D0008A0180918B0190918C012091630130916F
:1005E000640140916501509166010E94E30B0E94F5
:1005F00021023CC08EE192E065E571E00E944B086B
:10060000EE24FF2487010CC08EE192E04AE050E026
:100610000E94290868E873E180E090E00E94C80128
:10062000B701A80197010894E11CF11C011D111DDF
:100630008091890190918A01A0918B01B0918C01E8
:1006400082179307A407B507FCF610C080918901B3
:1006500090918A01A0918B01B0918C0180936301EC
:1006600090936401A0936501B09366018EE192E0DE
:1006700068E471E00E944B0882E891E060E071E07C
:100680000E945B0927960FB6F894DEBF0FBECDBF60
:10069000CF91DF911F910F91FF90EF9008951F92DE
:1006A0000F920FB60F9211242F933F938F939F9326
:1006B000AF93BF938091910190919201A09193018A
:1006C000B0919401309195010196A11DB11D232F88
:1006D0002D5F2D3720F02D570196A11DB11D2093C0
:1006E00095018093910190939201A0939301B0930F
:1006F000940180918D0190918E01A0918F01B09114
:1007000090010196A11DB11D80938D0190938E01E2
:10071000A0938F01B0939001BF91AF919F918F9162
:100720003F912F910F900FBE0F901F9018959B0136
:10073000AC017FB7F89480918D0190918E01A091CA
:100740008F01B091900166B5A89B05C06F3F19F06D
:100750000196A11DB11D7FBFBA2FA92F982F882701
:10076000860F911DA11DB11D62E0880F991FAA1F60
:10077000BB1F6A95D1F7BC012DC0FFB7F8948091DB
:100780008D0190918E01A0918F01B0919001E6B5FD
:10079000A89B05C0EF3F19F00196A11DB11DFFBF39
:1007A000BA2FA92F982F88278E0F911DA11DB11D3B
:1007B000E2E0880F991FAA1FBB1FEA95D1F7861B9D
:1007C000970B885E9340C8F2215030404040504023
:1007D00068517C4F211531054105510571F6089589
:1007E000019739F0880F991F880F991F0297019779
:1007F000F1F70895789484B5826084BD84B58160F2
:1008000084BD85B5826085BD85B5816085BDEEE618
:10081000F0E0808181608083E1E8F0E010828081F7
:1008200082608083808181608083E0E8F0E0808165
:1008300081608083E1EBF0E0808184608083E0EB85
:10084000F0E0808181608083EAE7F0E0808184606D
:1008500080838081826080838081816080838081C9
:10086000806880831092C1000895CF93DF93482F52
:1008700050E0CA0186569F4FFC0134914A575F4FA2
:10088000FA018491882369F190E0880F991FFC0197
:10089000E859FF4FA591B491FC01EE58FF4FC59167
:1008A000D491662351F42FB7F8948C91932F90959F
:1008B00089238C93888189230BC0623061F42FB720
:1008C000F8948C91932F909589238C938881832B16
:1008D00088832FBF06C09FB7F8948C91832B8C938D
:1008E0009FBFDF91CF910895482F50E0CA018255F4
:1008F0009F4FFC012491CA0186569F4FFC019491A1
:100900004A575F4FFA013491332309F440C0222340
:1009100051F1233071F0243028F42130A1F022303D
:1009200011F514C02630B1F02730C1F02430D9F4CD
:1009300004C0809180008F7703C0809180008F7DFC
:100940008093800010C084B58F7702C084B58F7DFE
:1009500084BD09C08091B0008F7703C08091B00042
:100960008F7D8093B000E32FF0E0EE0FFF1FEE5875
:10097000FF4FA591B4912FB7F894662321F48C9181
:100980009095892302C08C91892B8C932FBF089559
:1009900008951F920F920FB60F9211242F933F9339
:1009A0004F938F939F93EF93FF938091C00082FDAD
:1009B0001DC04091C6002091D6013091D7012F5F14
:1009C0003F4F2F7330708091D8019091D901281733
:1009D000390771F0E091D601F091D701EA56FE4F48
:1009E00040833093D7012093D60102C08091C60086
:1009F000FF91EF919F918F914F913F912F910F9088
:100A00000FBE0F901F901895E0912A02F0912B02D3
:100A1000E05CFF4F8191919120813181821B930B8A
:100A20008F739070892B11F00E94C80408951F9253
:100A30000F920FB60F9211242F933F938F939F9392
:100A4000EF93FF9320911A0230911B0280911C02B8
:100A500090911D022817390731F48091C1008F7DD4
:100A60008093C10014C0E0911C02F0911D02E65277
:100A7000FE4F208180911C0290911D0201968F7380
:100A8000907090931D0280931C022093C600FF91EA
:100A9000EF919F918F913F912F910F900FBE0F90EB
:100AA0001F901895AF92BF92DF92EF92FF920F9333
:100AB0001F93CF93DF93EC017A018B01DD2440304B
:100AC00081EE580780E0680780E0780711F0DD24A8
:100AD000D39491E0A92EB12CEC89FD89DD2069F039
:100AE000C50108A002C0880F991F0A94E2F780830D
:100AF00060E079E08DE390E005C0108260E874E882
:100B00008EE190E0A80197010E94020C2150304034
:100B100040405040569547953795279580E12030C5
:100B2000380720F0DD2011F0DD24D6CFE889F989DF
:100B30003083EA89FB89208319A2EE89FF894081ED
:100B400021E030E0C9010C8C02C0880F991F0A9483
:100B5000E2F7482B4083EE89FF894081C9010D8C63
:100B600002C0880F991F0A94E2F7482B4083EE8950
:100B7000FF894081C9010E8C02C0880F991F0A9419
:100B8000E2F7482B4083EE89FF8980810F8C02C0F9
:100B9000220F331F0A94E2F7209528232083DF9148
:100BA000CF911F910F91FF90EF90DF90BF90AF908A
:100BB0000895DC011C96ED91FC911D97E05CFF4FC0
:100BC0002191319180819181281B390B2F733070D5
:100BD000C9010895DC011C96ED91FC911D97E05C24
:100BE000FF4F20813181E054F040DF01AE5BBF4F09
:100BF0008D919C9111972817390719F42FEF3FEF2A
:100C000007C08D919C91E80FF91F8081282F30E05B
:100C1000C9010895DC011C96ED91FC911D97E05CE3
:100C2000FF4F20813181E054F040DF01AE5BBF4FC8
:100C30008D919C9111972817390719F42FEF3FEFE9
:100C400010C08D919C911197E80FF91F20818D9113
:100C50009C91119701968F73907011969C938E932F
:100C600030E0C9010895DC0191968C919197882319
:100C700039F05496ED91FC915597808186FFF9CF1C
:100C800091961C920895CF93DF93EC01EE85FF853A
:100C9000E05CFF4F20813181E054F0402F5F3F4FF7
:100CA0002F733070DF01AE5BBF4F8D919C91119718
:100CB00028173907D1F3E05CFF4F80819181E05420
:100CC000F040E80FF91F6083EE85FF85E05CFF4F81
:100CD00031832083EE89FF89208181E090E00F8CB1
:100CE00002C0880F991F0A94E2F7282B208381E025
:100CF00089A3EC89FD8980818064808381E090E014
:100D0000DF91CF910895109221021092200288EE77
:100D100093E0A0E0B0E08093220290932302A0939E
:100D20002402B093250285E791E090931F028093FF
:100D30001E0286E991E090932B0280932A028AEDAD
:100D400091E090932D0280932C0285EC90E090939B
:100D50002F0280932E0284EC90E0909331028093D6
:100D6000300280EC90E0909333028093320281EC69
:100D700090E0909335028093340282EC90E090935F
:100D800037028093360286EC90E09093390280938C
:100D9000380284E080933A0283E080933B0287E04C
:100DA00080933C0285E080933D0281E080933E0287
:100DB0000895CF93DF930E94FA030E945001C4E08C
:100DC000D5E00E9443022097E1F30E940405F9CF89
:100DD000CF92DF92EF92FF920F931F93CF93DF9307
:100DE0007C016B018A01C0E0D0E00FC0D6016D919B
:100DF0006D01D701ED91FC910190F081E02DC701CB
:100E00000995C80FD91F015010400115110571F740
:100E1000CE01DF91CF911F910F91FF90EF90DF9066
:100E2000CF900895EF92FF920F931F938C01DC01F6
:100E3000ED91FC910190F081E02D6DE009957C0130
:100E4000D801ED91FC910190F081E02DC8016AE09C
:100E500009959C012E0D3F1DC9011F910F91FF9017
:100E6000EF900895CF93DF93EC016115710519F4AC
:100E700020E030E00FC0DB010D900020E9F7119772
:100E8000A61BB70BE881F9810280F381E02DAD014B
:100E900009959C01C901DF91CF9108954F925F920E
:100EA0007F928F929F92AF92BF92CF92DF92EF92FA
:100EB000FF920F931F93DF93CF93CDB7DEB7A19728
:100EC0000FB6F894DEBF0FBECDBF2C01742ECB0140
:100ED000223008F42AE019A231E2C32ED12CCC0E24
:100EE000DD1E822E9924AA24BB24672D752FA5010F
:100EF00094010E94020C79018A01C801B701A50181
:100F000094010E94E30B472D461B0894C108D108A9
:100F10004A3014F4405D01C0495CF6014083E1149D
:100F2000F1040105110521F07E2C5F2DC801DDCFF4
:100F3000C201B6010E943207A1960FB6F894DEBF37
:100F40000FBECDBFCF91DF911F910F91FF90EF901A
:100F5000DF90CF90BF90AF909F908F907F905F90E9
:100F60004F900895DC012115310541F4ED91FC917C
:100F70000190F081E02D642F099508950E944E079D
:100F80000895EF92FF920F931F937C010E94B20786
:100F90008C01C7010E9412079C01200F311FC9015B
:100FA0001F910F91FF90EF900895CF92DF92EF92F3
:100FB000FF920F931F93CF93DF93EC016A017B01A4
:100FC0002115310541F4E881F9810190F081E02D8E
:100FD000642F09951FC02A303105D1F477FF17C05F
:100FE000E881F9810190F081E02D6DE209958C0195
:100FF00044275527BA014C195D096E097F09CE01B6
:101000002AE00E944E079801280F391F04C02AE0E9
:101010000E944E079C01C901DF91CF911F910F9152
:10102000FF90EF90DF90CF900895EF92FF920F9393
:101030001F937C010E94D5078C01C7010E941207F3
:101040009C01200F311FC9011F910F91FF90EF905C
:101050000895CF92DF92EF92FF920F931F936C014E
:101060007B019A010027F7FC0095102FB801A7011A
:101070000E94D5078C01C6010E941207080F191F94
:10108000C8011F910F91FF90EF90DF90CF900895CE
:101090000E9432070895EF92FF920F931F937C01F5
:1010A0000E9432078C01C7010E941207080F191F06
:1010B000C8011F910F91FF90EF900895FC019B01D3
:1010C000848195816817790728F4608171816115A1
:1010D000710529F41092400260E472E002C0620FD0
:1010E000731FCB010895FC0180819181009729F441
:1010F00020E030E040E050E004C00E948E009B0100
:10110000AC01B901CA010895CF93DF93FC01C081FE
:10111000D181209739F409C0992787FD90950E94C5
:101120002A0C899388818823B9F7DF91CF9108959C
:101130000F931F93CF93DF93EC018B016F5F7F4F72
:10114000888199810E94020B009711F480E005C00C
:10115000998388831B830A8381E0DF91CF911F915C
:101160000F910895CF93DF93EC0188819981892BAA
:1011700029F08A819B818617970760F4CE010E942F
:101180009808882341F08C819D81892B19F4E8818E
:10119000F981108281E0DF91CF910895EF92FF9263
:1011A0000F931F93CF93DF93EC017B016C817D81C3
:1011B000E114F104C1F04115510599F08A01060FBF
:1011C000171FB8010E94B208882369F088819981AD
:1011D0002C813D81820F931FB7010E94BE001D83A9
:1011E0000C8381E001C080E0DF91CF911F910F91CE
:1011F000FF90EF900895DF93CF9300D0CDB7DEB787
:1012000069831A82BE016F5F7F4F41E050E00E9408
:10121000CE080F900F90CF91DF910895CF93DF9379
:10122000EC0188819981009711F00E946A0A198265
:1012300018821D821C821B821A82DF91CF91089531
:10124000EF92FF920F931F93CF93DF93EC017B01FB
:101250008A01BA010E94B208882321F4CE010E94BB
:101260000E0907C01D830C8388819981B7010E94F4
:10127000BE00CE01DF91CF911F910F91FF90EF90B3
:101280000895CF93DF93EC01198218821B821A8292
:101290001D821C821E826115710551F0DB010D90CB
:1012A0000020E9F71197A61BB70BAD010E9420099A
:1012B000DF91CF9108950F931F93182F092F611578
:1012C000710559F0DB010D900020E9F71197A61B7D
:1012D000B70BAD010E94200902C00E940E09812FA8
:1012E000902F1F910F910895BF92CF92DF92EF92AE
:1012F000FF920F931F93CF93DF93082FB92E6B01AB
:101300007A01E9012417350710F4EA017901802FE9
:101310009B2D62E671E00E944109D60114968D91E1
:101320009C9115978E159F05D0F08C179D0708F49A
:10133000EC01D601ED91FC911197EC0FFD1F10818E
:1013400010826D917C916E0D7F1D802F9B2D0E94D0
:101350005B09D601ED91FC91EC0FFD1F1083802FEE
:101360009B2DDF91CF911F910F91FF90EF90DF9018
:10137000CF90BF9008950F931F938C01FB012481A0
:1013800035810E947409C8011F910F910895FC01D5
:10139000808191810E946A0A08950F931F93CF93D1
:1013A000DF93BC018230910510F462E070E0E091BF
:1013B0004302F091440240E050E0A0E0B0E024C0DD
:1013C0008081918186179707D0F08617970771F46F
:1013D00082819381109729F013969C938E93129794
:1013E0002CC0909344028093430227C041155105BD
:1013F00019F08417950718F48D01AC01EF01DF0196
:10140000828193819C01F9013097D1F641155105F4
:10141000F9F0CA01861B970B8430910580F48A810C
:101420009B810115110521F0F8019383828304C08B
:101430009093440280934302FE01329645C0FE0120
:10144000E80FF91F619371930297998388833CC0D9
:101450008091410290914202892B41F480916D016B
:1014600090916E01909342028093410240916F01EE
:10147000509170014115510541F44DB75EB780910F
:101480006B0190916C01481B590B209141023091E6
:10149000420224173507B0F4CA01821B930B86174A
:1014A000970780F0AB014E5F5F4F8417950750F0B0
:1014B000420F531F5093420240934102F90161933E
:1014C000719302C0E0E0F0E0CF01DF91CF911F9176
:1014D0000F910895CF93DF939C01009709F48FC07B
:1014E000EC0122971B821A826091430270914402A0
:1014F0006115710581F488819981820F931F209174
:101500004102309142022817390739F5D09342023F
:10151000C093410274C0DB0140E050E0AC17BD074E
:1015200008F1BB83AA83FE0121913191E20FF31FE1
:10153000AE17BF0779F48D919C911197280F391F31
:101540002E5F3F4F3983288312968D919C9113977C
:101550009B838A834115510571F4D0934402C09353
:1015600043024DC012968D919C911397AD01009747
:1015700011F0DC01D3CFDA011396DC93CE931297EE
:10158000FA0121913191E20FF31FCE17DF0769F4C1
:1015900088819981280F391F2E5F3F4FFA013183CF
:1015A00020838A819B8193838283E0E0F0E0DB01EA
:1015B00012968D919C911397009719F0BC01FD0133
:1015C000F6CFAB014E5F5F4FDB018D919C91840F95
:1015D000951F20914102309142022817390779F472
:1015E000309729F4109244021092430202C01382F1
:1015F0001282425050405093420240934102DF9188
:10160000CF9108956F927F928F929F92AF92BF92E7
:10161000CF92DF92EF92FF920F931F93CF93DF93BE
:101620008C01009729F4CB010E94CD098C01BBC02D
:101630008EEFE82E8FEFF82EE00EF11E4801860E99
:10164000971E8E149F0408F4ACC0D7014D915C9195
:10165000119746175707B8F04530510508F4A3C055
:10166000CA0104978617970708F49DC0425050405E
:10167000461B570BF401419351936D937C93CF011B
:101680000E946A0A90C05B01A41AB50A3801640E70
:10169000751EA0914302B0914402E0E0F0E0CC243A
:1016A000DD2447C0A615B705A9F5CD91DC911197AA
:1016B000CE0102968A159B0568F1CE018A199B0915
:1016C000029612962C91129713963C91059758F01A
:1016D000F40122833383CA19DB09D183C083D70184
:1016E0006D937C9309C04E5F5F4F4C0F5D1FF701F8
:1016F00051834083C901FC01C114D10431F0D601EA
:101700001396FC93EE9312974EC0F0934402E0932D
:10171000430249C08D919C911197E817F90708F48D
:10172000FC016D0112968C91129713969C919C016D
:10173000D901109709F0B6CF8091410290914202F1
:1017400086159705E9F4E617F707D0F420916F01A5
:10175000309170012115310541F42DB73EB78091CC
:101760006B0190916C01281B390B82169306C8F40B
:101770009092420280924102F7017183608313C00C
:10178000CB010E94CD09EC01009759F0D7014D9192
:101790005C91B8010E94B500C8010E946A0A8E01DE
:1017A00002C000E010E0C801DF91CF911F910F91BE
:1017B000FF90EF90DF90CF90BF90AF909F908F9071
:1017C0007F906F900895629FD001739FF001829F78
:1017D000E00DF11D649FE00DF11D929FF00D839FC0
:1017E000F00D749FF00D659FF00D9927729FB00D5D
:1017F000E11DF91F639FB00DE11DF91FBD01CF0170
:1018000011240895A1E21A2EAA1BBB1BFD010DC0D5
:10181000AA1FBB1FEE1FFF1FA217B307E407F507A0
:1018200020F0A21BB30BE40BF50B661F771F881F7C
:10183000991F1A9469F760957095809590959B0112
:10184000AC01BD01CF010895EE0FFF1F0590F4918B
:10185000E02D09949111089581568A5108F480521F
:101860008558089510E0C6ECD0E004C0FE010E9447
:0E187000260C2296C83CD107C9F7F894FFCF8A
:10187E000053746172742053657269616C20436FFA
:10188E006D6D756E69636174696F6E20666F72201F
:10189E00537465707065726D6F746F720042616320
:1018AE006B776172642053746570733A2000466FD3
:1018BE0072776172643A20002E004261636B776129
:1018CE0072643A20005465737466756E6B74696F3A
:1018DE006E00000100000000C20100800045020001
:1018EE0000000000004306E806D9050A06EA0533A3
:0218FE000600E2
:00000001FF
